:020000040800F2
:100000003004002001010008F5020008B9020008D0
:10001000F102000849010008390B00080000000047
:10002000000000000000000000000000C3070008FE
:100030004F010008000000000D030008AD08000893
:100040001B0100081B0100081B0100081B01000820
:100050001B0100081B0100081B0100081B01000810
:100060001B0100081B0100081B0100081B01000800
:100070001B0100081B0100084D0100081B010008BE
:100080001B0100081B0100081B0100081B010008E0
:100090001B0100081B0100081B0100081B010008D0
:1000A0001B0100081B0100081B0100081B010008C0
:1000B0001B0100081B0100081B0100081B010008B0
:1000C0001B0100081B0100081B0100081B010008A0
:1000D0001B010008250A00081B0100081B0100087D
:1000E0001B0100081B0100081B010008DFF80CD0F1
:1000F00000F018F800480047B10B00083004002059
:100100000648804706480047FEE7FEE7FEE7FEE7B1
:10011000FEE7FEE7FEE7FEE7FEE7FEE7310900083F
:10012000ED000008064C074D06E0E06840F00103D2
:1001300094E8070098471034AC42F6D3FFF7DAFF93
:10014000F00B0008100C000800BFFEE77047704776
:1001500001B50C49009808804FF0E020006940F09C
:1001600001004FF0E021086100BF06480088002828
:10017000FBD14FF0E020006920F001004FF0E021BA
:10018000086108BD280000202DE9F0410246002545
:100190000026002000230024002791F803C00CF063
:1001A0000F0591F803C00CF0100CBCF1000F03D048
:1001B00091F802C04CEA050591F800C0BCF1000FAF
:1001C00031D0146800202BE04FF0010C0CFA00F342
:1001D000B1F800C00CEA03069E4220D183004FF024
:1001E0000F0C0CFA03F7BC4305FA03FC4CEA0404B9
:1001F00091F803C0BCF1280F06D14FF0010C0CFAA6
:1002000000FCC2F814C00AE091F803C0BCF1480F2A
:1002100005D14FF0010C0CFA00FCC2F810C0401CD4
:100220000828D1D31460B1F800C0BCF1FF0F34DD51
:10023000546800202EE000F1080C4FF0010808FA85
:100240000CF3B1F800C00CEA03069E4221D18300F2
:100250004FF00F0C0CFA03F7BC4305FA03FC4CEA11
:10026000040491F803C0BCF1280F05D100F1080C7B
:1002700008FA0CF8C2F8148091F803C0BCF1480FDA
:1002800007D100F1080C4FF0010808FA0CF8C2F889
:100290001080401C0828CED35460BDE8F08102468F
:1002A000002093680B400BB1012000E00020704754
:1002B000416170470161704700BFFEE708B5012149
:1002C000042000F025F810208DF803000001ADF89F
:1002D000000001208DF8020069460448FFF754FF32
:1002E0004FF480710148FFF7E5FF08BD00080140A9
:1002F00000BFFEE77047000010B510210248FFF76D
:10030000CEFF0446204610BD0008014070470000A3
:1003100029B1064A92690243044B9A6104E0034AF8
:1003200092698243014B9A617047000000100240BD
:1003300030B500210022002400232D4D6D6805F00A
:100340000C0121B1042905D0082923D105E0294D4C
:10035000056022E0274D05601FE0254D6D6805F41E
:100360007012234D6D6805F48034022505EB92422E
:100370001CB9214D554305600BE01D4D6D6805F41A
:1003800000351DB11C4D5543056002E0194D554324
:10039000056002E0174D056000BF00BF144D6D6899
:1003A00005F0F0010909154D6B5C0568DD404560FD
:1003B0000F4D6D6805F4E061090A104D6B5C4568EE
:1003C000DD4085600A4D6D6805F46051C90A0B4D2A
:1003D0006B5C4568DD40C560054D6D6805F44041C6
:1003E000890B074D6B5CC568B5FBF3F5056130BD46
:1003F0000010024000127A0000093D0014000020A5
:100400002400002010B501210148FFF753FF10BD63
:10041000000C014010B501210148FFF749FF10BD54
:10042000000C014010B502210148FFF743FF10BD49
:10043000000C014010B502210148FFF739FF10BD43
:10044000000C014021B1028842F04002028004E029
:1004500002884FF6BF731A400280704700B587B01C
:10046000012141F20C00FFF753FF18208DF81B000B
:10047000A020ADF8180001208DF81A0006A9264822
:10048000FFF782FE0320ADF8180010208DF81B0046
:1004900001208DF81A0006A92048FFF775FE0420F8
:1004A0008DF81B004020ADF8180006A91A48FFF788
:1004B0006BFE1020ADF8180048208DF81B0006A92F
:1004C0001548FFF761FEFFF7A5FFFFF7ABFF002020
:1004D000ADF804004FF48270ADF806000020ADF8CE
:1004E0000800ADF80A00ADF80C001020ADF81000BF
:1004F0004001ADF80E000020ADF812000720ADF865
:10050000140001A9064800F01BF801210448FFF778
:1005100099FF07B000BD000000080140000C014039
:10052000003001400246002013890B400BB101202E
:1005300000E000207047014688897047818170473C
:1005400010B50022028802F441520B884C882343E4
:100550008C882343CC8823430C8923434C89234331
:100560008C892343CC8923431A430280838B4FF227
:10057000FF74234083830B8A038210BD1CB52FA018
:1005800000F0DCFA01208DF800008DF80100022057
:100590008DF8020020208DF803000F208DF8040054
:1005A0000E208DF8050005232C4A30212C4800F040
:1005B000CFF805232B4A2A21294800F0C9F8012346
:1005C0006A462121264800F0C3F801230DF10102FB
:1005D0002221234800F0BCF801230DF1020225215D
:1005E0001F4800F0B5F801230DF1030231211C482A
:1005F00000F0AEF8012301AA2621194800F0A8F85E
:1006000001230DF105022021154800F0A1F8012376
:100610000DF106020721124800F034F801230DF114
:10062000060227210E4800F093F8FFF7EBFE0EA01C
:1006300000F084FA0A20FFF78BFD1CBD0D0A204351
:100640006F6E6669677572696E67204E52462054F8
:1006500058204D6F64652E2E2E2E0000E40B0008EE
:1006600000300140E90B00080D0A20545820436F68
:100670006E66696775726174696F6E6720646F6E0C
:10068000652100002DE9F0470746884615461E46BD
:10069000FFF7C0FEFFF7CEFE4146384600F077F880
:1006A0008146002406E0FF21384600F070F8285506
:1006B000601CC4B2B442F6DBFFF7B4FE4846BDE8A6
:1006C000F087000038B504460D461BA000F036FA4E
:1006D000FFF7A0FE2B462246A0211C4800F038F868
:1006E000FFF790FE00BFFFF707FE0028FBD10123B4
:1006F0006A4607211548FFF7C5FF01236A462721EF
:10070000124800F025F89DF8000000F0100048B1F4
:10071000FFF780FE0123FF22E1210C4800F018F8CA
:10072000102038BD9DF8000000F0200008B1202006
:10073000F7E7FF20F5E700000D0A2053656E6469B6
:100740006E6720646174612E2E2E2E0000300140F1
:100750002DE9F0470746884614461D46FFF75AFE26
:10076000FFF768FE4146384600F011F88146002642
:1007700006E014F8011B384600F009F8701CC6B2F8
:10078000AE42F6DBFFF74EFE4846BDE8F08770B597
:1007900004460D4600BF02212046FFF7C3FE002895
:1007A000F9D029462046FFF7C9FE00BF01212046A7
:1007B000FFF7B8FE0028F9D02046FFF7BCFEC0B214
:1007C00070BD704710B500F001F810BD0CB50020E9
:1007D000019000903348006840F48030314908604F
:1007E00000BF3048006800F4003000900198401CC1
:1007F0000190009818B90198B0F5A06FF1D129487F
:10080000006800F4003010B10120009001E00020E9
:1008100000900098012843D12348006840F0100060
:10082000214908600846006820F003000860084677
:10083000006840F0020008601A48406819494860A2
:100840000846406848600846406840F48060486058
:100850000846406820F47C1048600846406840F430
:10086000E81048600846006840F08070086000BFEB
:100870000C48006800F000700028F9D00948406872
:1008800020F00300074948600846406840F0020035
:10089000486000BF0348406800F00C000828F9D108
:1008A0000CBD0000001002400020024010B500F016
:1008B0006FF810BD30B51A4800681A4AB0FBF2F163
:1008C000B1F1807F01D301201DE021F07F40401E67
:1008D0004FF0E022506150170F22002807DA13076B
:1008E0001D0E114B00F00F04241F1D5503E01307CC
:1008F0001C0E0E4B1C5400BF00204FF0E0229061F4
:1009000007201061002008B100BFFEE74FF0E02093
:10091000006920F001004FF0E021086130BD0000C7
:100920000000002040420F0018ED00E000E400E06D
:1009300010B51348006840F00100114908600846EE
:100940004068104908400E494860084600680E4952
:1009500008400B4908600846006820F480200860C1
:100960000846406820F4FE0048604FF41F0088608D
:10097000FFF728FF4FF000600449086010BD000039
:10098000001002400000FFF8FFFFF6FE08ED00E057
:10099000AFF2030020B103480088401E01490880DF
:1009A000704700002800002000B585B0012144F206
:1009B0000400FFF7ADFC4FF40070ADF810001820F4
:1009C0008DF8130003208DF8120004A91348FFF7D7
:1009D000DBFB4FF48060ADF8100004208DF81300AD
:1009E00004A90E48FFF7D0FB4FF4E130009000203F
:1009F000ADF80C00ADF80400ADF80600ADF8080045
:100A00000C20ADF80A006946054800F025F80121E0
:100A1000034800F008F805B000BD000000080140E0
:100A200000380140704721B1828942F4005282812E
:100A300004E082894DF6FF731A40828170470246B6
:100A40000020B1F5007F00D100BF13880B400BB12F
:100A5000012000E0002070472DE9F04786B00546F0
:100A60000E460024A24600BFA1460027B08900B16F
:100A700000BF2F462C8A4CF6FF700440F0880443D8
:100A80002C82AC894EF6F3100440B08831890843BB
:100A9000718908430443AC81AC8A4FF6FF4004409F
:100AA000B0890443AC8201A8FFF742FC1F4887428B
:100AB00002D1DDF810A001E0DDF80CA0A88900F457
:100AC000004040B10AEBCA0000EB0A10316849004F
:100AD000B0FBF1F807E00AEBCA0000EB0A1031683E
:100AE0008900B0FBF1F86420B8FBF0F004012009A4
:100AF000642101FB1089A88900F4004040B1322034
:100B000000EBC900B0FBF1F000F00700044308E07F
:100B1000322000EB09106421B0FBF1F000F00F006F
:100B200004432C8106B0BDE8F08700000038014086
:100B3000C1F308028280704700BFFEE7014A024904
:100B400000F013B88D0B00082C00002002E008C84C
:100B5000121F08C1002AFAD170477047002001E037
:100B600001C1121F002AFBD170472DE9F041164642
:100B70000F460446002503E03946B047641C6D1C4F
:100B800020780028F8D12846BDE8F08170B50446E9
:100B90000D46E1B20548FFF7CBFF00BF40210348F7
:100BA000FFF74DFF0028F9D0204670BD0038014006
:100BB00008B5FF200090FFF7F7FEFFF77BFEFFF779
:100BC0004DFCFFF77BFBFFF7D9FC08E001216846ED
:100BD000FFF778FD04460248FFF7BAFA00BFF5E7D1
:100BE00020A107003443101001344310100100000D
:100BF000100C000800000020300000004C0B000822
:100C0000400C000830000020000400005C0B0008CD
:100C100000A24A04000000000000000001020304DA
:100C20000607080900000000010203040102030492
:100C30000607080902040608000000000000000082
:0400000508000101ED
:00000001FF
